:020000040000FA
:060000000A128A11FC2F18
:100E94008316031789018312031386010F30831607
:100EA4000313860095017F3081009601831203139A
:100EB40006185D2F5E2F802F0330F2008A30F10078
:100EC4005530F000F00B642FF10B642FF20B642FFC
:100ED4006B2F831203130618702F712F802F10307D
:100EE40086060330F2008A30F1005530F000F00B32
:100EF400792FF10B792FF20B792F802F83120313A3
:100F04008618852F862FA82F0330F2008A30F1002F
:100F14005530F000F00B8C2FF10B8C2FF20B8C2F33
:100F2400932F831203138618982F992FA82F2030FC
:100F340086060330F2008A30F1005530F000F00BE1
:100F4400A12FF10BA12FF20BA12FA82F83120313B2
:100F54000619AD2FAE2FD02F0330F2008A30F100E6
:100F64005530F000F00BB42FF10BB42FF20BB42F6B
:100F7400BB2F831203130619C02FC12FD02F40306B
:100F840086060330F2008A30F1005530F000F00B91
:100F9400C92FF10BC92FF20BC92FD02F83120313C2
:100FA4008619D52FD62F582F0330F2008A30F1003E
:100FB4005530F000F00BDC2FF10BDC2FF20BDC2FA3
:100FC400E32F831203138619E82FE92F582F80305B
:100FD40086060330F2008A30F1005530F000F00B41
:100FE400F12FF10BF12FF20BF12FF82F582F0A12DA
:0C0FF4008A11002883010A128A114A2F7A
:02400E00F2209E
:00000001FF
